:020000040800F2
:100000007806002001010008231900088D16000859
:10001000211900086D010008591C000800000000AB
:100020000000000000000000000000002719000888
:10003000F502000800000000251900082919000831
:100040001B0100081B0100081B0100081B01000820
:100050001B0100081B0100081B0100081B01000810
:100060001B0100081B0100081B0100081B01000800
:100070001B0100081B0100081B0100081B010008F0
:100080001B0100081B0100081B0100081B010008E0
:100090001B0100081B0100081B0100081B010008D0
:1000A0001B0100081B0100081B0100081B010008C0
:1000B0001B0100081B010008891900081B0100082A
:1000C0001B0100081B0100081B0100081B010008A0
:1000D0001B010008411C00084D1C00081B01000802
:1000E0001B0100081B0100081B010008DFF80CD0F1
:1000F00000F02AF800480047C922000878060020CE
:100100000648804706480047FEE7FEE7FEE7FEE7B1
:10011000FEE7FEE7FEE7FEE7FEE7FEE785190008DB
:10012000ED000008D2B201E000F8012B491EFBD21D
:1001300070470022F6E710B513460A4604461946F2
:10014000FFF7F0FF204610BD064C074D06E0E068C3
:1001500040F0010394E8070098471034AC42F6D30E
:10016000FFF7C8FF0828000828280008FEE700005D
:1001700070B50024104D04E0641CE4B2012000F0CE
:10018000BBF8D5F8140110B1642CF5D30DE0642C44
:100190000BD2002404E0641CE4B2012000F0ACF8AF
:1001A000D5F8140118B1642C04D3012070BD642C5F
:1001B000F1D3FAE7002070BD0080214270B5002421
:1001C000104D04E0641CE4B2012000F095F8D5F86D
:1001D000140108B1642CF5D3002404E0641CE4B2DB
:1001E000012000F089F8D5F8140108B9642CF5D382
:1001F000232000F081F8D5F81401002800D0012058
:1002000070BD00000080214270B500200446400609
:10021000050EFFF7D3FF641C2843E4B2082CF6D385
:1002200070BD00002DE9FC4100F050F8FFF7A0FF81
:10023000002839D100246D46FFF7E6FF2855641CDD
:10024000E4B2052CF8D39DF800409DF801609DF8BC
:1002500002309DF80350A019591901441A489DF81D
:100260000470C21E4FF0000CB94206D104704670F3
:100270008370C570537094701BE081785778791A39
:1002800000D54942032911DA01789778791A00D507
:100290004942002900DA4942032907DA047046700E
:1002A0008370C57082F800C0BDE8FC811178491CDC
:1002B000117011780529F7D982F800C0FF2101706B
:1002C00041708170C170EFE73300002010B5084C19
:1002D0000020C4F89401142004F5CA7400F074F8E6
:1002E00001202060BDE810401E2000F005B800008D
:1002F000008021427047000010B504460A4800F013
:1003000029FE0948002102685162042C01D9A41E6B
:1003100000E001240068A1B2426A8A42FCD3BDE831
:100320001040014800F06ABE6801002072B6FEE786
:1003300010B590F821100024022903D00421816314
:1003400001243DE001680A6822F00E020A6001689B
:100350000A6822F001020A601A4A0168914201D13A
:10036000012121E0174A1432914201D110211BE0F2
:10037000144A2832914201D1891515E0114A3C32C4
:10038000914201D189140FE00E4A5032914202D1BC
:100390004FF4803108E00B4A6432914202D14FF4AD
:1003A000801101E04FF08071064A083A5160012146
:1003B00080F82110002180F82010416B01B188479E
:1003C000204610BD0800024070B5044600F010F948
:1003D0000546601C02D004480078044400F008F987
:1003E000401BA042FAD370BD200000202DE9F84F39
:1003F000DFF8B891002409F1040A0AF1040B23463E
:100400000F270BF1040EC9E00125A5402A40AA429E
:100410007DD1674ED1F804C0ACEB0608B44532D0AC
:1004200014DCBCF1030F3AD009DCBCF1000F2AD078
:10043000BCF1010F1CD0BCF1020F31D11DE0BCF1A9
:10044000110F17D0BCF1120F2AD119E0B8F5881F8F
:1004500019D006DCB8F5803F15D0B8F5801F1FD144
:1004600011E0B8F5001F0ED0B8F5041F18D10AE04E
:10047000CB6815E0CB681B1D12E0CB6808330FE09A
:10048000CB680C330CE08B682BB1012B4FF00803C9
:1004900003D0456104E0042302E0056100E000238D
:1004A000FF2A01D8064601E000F104064FEA840560
:1004B00001D9A5F12005D6F8008007FA05FC28EA45
:1004C0000C0803FA05F548EA0508C6F800804D68EF
:1004D000ED0062D5374DAE6946F00106AE61AD69FB
:1004E00024F0030605F001050095334D06EB050CDD
:1004F000DCF80850A607360F07FA06F825EA0805C3
:10050000DFF8B880404503D14FF0000817E044E021
:10051000DFF8AC80404502D14FF001080FE0DFF872
:10052000A480404502D14FF0020808E0DFF898802F
:10053000404502D14FF0030801E04FF0040808FAEB
:1005400006F848EA0508CCF808804D68D9F800603C
:10055000ED034D4601D5164300E096432E604D68ED
:10056000DAF80060AD03554601D5164300E0964326
:100570002E604D68DBF80060ED025D4601D5164344
:1005800000E096432E604D68DEF80060AD027546CF
:1005900001D5164300E096432E60641C0D682A4680
:1005A000E5407FF431AFBDE8F88F00000004014062
:1005B000000011100010024000000140000801403E
:1005C000000C014000100140001401408068084008
:1005D00000D001207047C26821EA02030A4043EAC2
:1005E0000241016170470AB1016170470904FBE7EC
:1005F00001488068704700002000002070B50400AA
:1006000025D094F83D00002520B984F83C502046C0
:1006100000F0B8F8242084F83D002068016821F03B
:10062000010101602068016841F400410160206817
:10063000016821F40041016000F004FA4D4A61684C
:10064000914201D84C4900E04C49884201D2012036
:1006500070BD4B492368B0FBF1F15E6826F03F06A0
:100660000E435E606368934206D94FF49673594314
:100670004FF47A73B1FBF3F12368491C1E6A26F02C
:100680003F06314319626168914210D84900401E0B
:10069000B0FBF1F2521CC2F30B02042A01D2042077
:1006A00022E0B0FBF1F0401CC0F30B001CE0A2689C
:1006B000F2B301EBC10303EB0116431EB3FBF6F3E8
:1006C0005B1C43F480431B0549D092B301EBC1028C
:1006D00002EB0111401EB0FBF1F0401CC0F30B0017
:1006E00040F4804040F400402168CA694CF6FF7332
:1006F0009A431043C861D4E9071001432068026897
:1007000022F0C00211430160D4E9030101432068D3
:10071000826848F2FF339A4311438160D4E90501AE
:1007200008432168CA6822F0FF021043C86001E054
:100730000EE016E02068016841F0010101602564C7
:10074000202084F83D00256384F83E50002070BDD1
:1007500001EB4106431EB3FBF6F35B1CB3E701203C
:10076000C2E701EB4101401EB0FBF1F0401CC0F3B9
:100770000B00B7E7A086010080841E0000093D0041
:1007800040420F0010B586B0002100910191029106
:10079000039100680F4988421AD10F4CA06940F0BC
:1007A0000800A061A069694600F008000490C0201C
:1007B000009012200190032003900848FFF716FED6
:1007C000E06940F40010E061E06900F4001004907A
:1007D00006B010BD0054004000100240000C014063
:1007E000024881680278114481607047200000202F
:1007F000074810B5016841F010010160032000F0C6
:1008000079F8002000F006F800F024F8002010BD70
:100810000020024070B50D4D04464FF47A712878DF
:10082000B1FBF0F00A490968B1FBF0F000F0F0FA12
:1008300048B9102C07D200222146501E00F03AF889
:1008400000206C6070BD012070BD00002000002001
:10085000140000200E4808B5816941F00101816152
:10086000816901F001010091C16941F08051C161CC
:10087000C06900F080500090052000F03BF805486A
:10088000416821F0E06141F00071416008BD000065
:100890000010024000000140002809DB00F01F02A8
:1008A000012191404009800000F1E020C0F80011D2
:1008B00070470000F0B40E4B1B680C46C3F30223D4
:1008C000C3F10705042D00D90425191D072901D2FC
:1008D000002300E0DB1E012606FA05F1491E214037
:1008E00099409E40761E16403143F0BC01F0E4B9B9
:1008F0000CED00E0064900F0070208684FF6FF0320
:10090000184040EA0220034A104308607047000084
:100910000CED00E00000FA052DE9F0470F46050058
:1009200061D0434E306800F00700B84209D2306809
:1009300020F0070038433060306800F00700B8420C
:1009400051D128683B4C810712D5400703D5606818
:1009500040F4E06060602878000703D5606840F4E8
:10096000605060606068A96820F0F0000843606033
:100970002878C00728D06868012810D0216802288C
:1009800010D0890700292EDA616821F003010143A4
:100990006160FFF72DFE804641F288390DE0216845
:1009A0008903EFE78901EDE7FFF722FEA0EB0801DD
:1009B000494502D90320BDE8F0876068696800F006
:1009C0000C00B0EB810FEFD1306800F00700B842A7
:1009D0000BD9306820F0070038433060306800F0F1
:1009E0000700B84201D00120E5E72878400705D587
:1009F0006068E96820F4E0600843606028780007D8
:100A000006D56068296920F4605040EAC100606042
:100A100000F038F86168084AC1F30311515CC8401E
:100A20000649086006480068FFF7F4FE0020C2E7A8
:100A30000020024000100240EE27000814000020B1
:100A4000240000200448054900684968044AC1F3AD
:100A50000221515CC8407047140000200010024081
:100A6000FE2700080448054900684968044AC1F3A4
:100A7000C221515CC84070471400002000100240A1
:100A8000FE27000812A185B00FC98DE80F0014A041
:100A9000144A006804905168134801F00C03042BB9
:100AA00010D0082B0ED1C1F38343C9031DF80300F6
:100AB0000AD5516804AAC1F34041515C0A4A504327
:100AC000B0FBF1F005B0704708494843FAE7000071
:100AD00002030405060708090A0B0C0D0E0F10107F
:100AE000010200000010024000127A0000093D00DF
:100AF0002DE9F84F040070D02078C04DC00749D0D0
:100B00006868C0F38100012807D06868C0F38100DD
:100B1000022809D16868C00306D52868800339D542
:100B200060680028E7D035E06068B0F5803F0BD002
:100B300010B1B0F5A02F11D0286820F480302860C3
:100B4000286820F4802002E0286840F48030286083
:100B5000606890B1FFF74CFD06460AE0286840F453
:100B600080202860F0E700BFFFF742FD801B64286B
:100B700073D828688003F7D50CE0FFF739FD0646E7
:100B800005E000BFFFF734FD801B6428F0D828681B
:100B90008003F7D420789A4E80074FF001094FF078
:100BA000000839D5686810F00C0F07D06868C0F3EA
:100BB0008100022809D16868C00306D4286880072C
:100BC00014D52069012808D110E02069B0B1C6F819
:100BD0000090FFF70DFD074605E00AE1FFF708FD6D
:100BE000C01B0228C4D828688007F7D52868616927
:100BF00020F0F80040EAC10028600DE0C6F800804F
:100C0000FFF7F6FC074604E0FFF7F2FCC01B0228E2
:100C100023D828688007F7D4207800072CD5794896
:100C2000A169D9B1C0F80090FFF7E2FC074604E0E3
:100C3000FFF7DEFCC01B02280FD8686A8007F7D5D3
:100C400071484FF4FA510068B0FBF1F0009000BF1A
:100C50000098411E0091FAD20EE080E0C0F80080BA
:100C6000FFF7C6FC074604E0FFF7C2FCC01B0228E2
:100C700075D8686A8007F7D42078400760D5E8699E
:100C80000027C00008D4E86940F08050E861E869B6
:100C9000012700F0805000905C480168C90513D41A
:100CA0000168834641F480710160FFF7A1FC824630
:100CB00006E000BFFFF79CFCA0EB0A0064284ED8BA
:100CC000DBF80000C005F5D5E06801280AD008B1BE
:100CD000052813D0286A20F001002862286A20F035
:100CE000040002E0286A40F001002862E06841F256
:100CF000883B98B1FFF77CFC82460BE0286A40F005
:100D000004002862EEE700BFFFF772FCA0EB0A01C7
:100D100059455AD8286A8007F6D50CE0FFF768FCD9
:100D2000824605E0FFF764FCA0EB0A0159454CD868
:100D3000286A8007F6D41FB1E86920F08050E86186
:100D4000E06988B36968C1F38101022944D00228AF
:100D5000C6F8608004D0FFF74BFC044638E034E06E
:100D6000FFF746FC074604E0FFF742FCC01B0228E1
:100D70002BD828688001F7D4206AB0F5803F05D1D0
:100D80006868A16820F4003008436860D4E908016D
:100D90000843696821F4741108436860C6F86090DC
:100DA000FFF726FC044606E025E000BFFFF720FC25
:100DB000001B022809D828688001F7D51BE000BF76
:100DC000FFF716FC001B022802D90320BDE8F88FAC
:100DD00028688001F4D40EE00128F7D06868226A00
:100DE00000F48031914204D1616A00F470108842AD
:100DF00001D00120EAE70020E8E7000000100240EF
:100E00000000424280044242140000200070004072
:100E100010B5401EB0F1807F01D3012010BD4FF00E
:100E2000E02460610F21601700F046FF0020A06100
:100E300007202061002010BD7047704770B590F802
:100E40003C20012A26D0012480F83C40022280F870
:100E50003D2003685A689D6822F070060A68324394
:100E60005A600D4B02689A4208D0B2F1804F05D00B
:100E70000A4B9A4202D00A4B9A4204D1496825F0A3
:100E800080031943916080F83D40002180F83C10B8
:100E9000084670BD022070BD002C014000040040D7
:100EA0000008004010B5040003D094F83D0010B1D4
:100EB00007E0012010BD002084F83C00204600F02F
:100EC0001FF8022084F83D00211D206800F062FD1B
:100ED000012084F8460084F83E0084F83F0084F83E
:100EE000400084F8410084F8420084F8430084F80C
:100EF000440084F8450084F83D00002010BD000047
:100F000008B5114A01681148914208D1C16941F000
:100F10000201C161C06900F00200009008BD0C4AE6
:100F20009142FBD1C16941F00401C161C069002255
:100F300000F00400009001211E20FFF7BBFCBDE87B
:100F400008401E20FFF7A8BC00040040001002402B
:100F50000008004090F83D10012901D001207047A1
:100F6000022180F83D1000680B49884208D0B0F19A
:100F7000804F05D00949884202D00949884204D1EE
:100F8000816801F00701062903D0016841F00101E1
:100F90000160002070470000002C01400004004068
:100FA0000008004090F83D10012901D00120704751
:100FB000022180F83D100168CA6842F00102CA604F
:100FC00000680B49884208D0B0F1804F05D009492C
:100FD000884202D00849884204D1816801F00701A3
:100FE000062903D0016841F001010160002070472B
:100FF000002C0140000400400008004001680A6A1B
:1010000041F211131A4207D10A6A9B101A4203D106
:101010000A6822F001020A60012180F83D100020D8
:10102000704770B5044690F83C00012817D00125A0
:1010300084F83C50022084F83D002068826822F049
:10104000770222F47F4282600868502830D00DDC9D
:1010500020284DD005DC98B310283BD148E0022071
:1010600070BD302844D0402834D139E0602828D0E1
:10107000702806D0B0F5805F2CD0B0F5005F29D184
:101080000AE0CB68D1E90121206800F0B9FC2068B2
:10109000816841F0770109E0CB68D1E9012120683E
:1010A00000F0AEFC2068816841F48041816011E06D
:1010B000CA684968206800F0B5FC5021206807E044
:1010C00016E0CA684968206800F0BDFC602120680D
:1010D00000F0A0FC84F83D50002084F83C0070BD76
:1010E000CA684968206800F09DFC40212068EFE74D
:1010F000226801461046EBE7704770B50446006869
:1011000001694FF00005C943890715D4C168C94377
:10111000890711D4E91E01610120207720688069C8
:101120008007204602D0FFF7E7FF04E000F098F8C0
:10113000204600F096F8257720680169C9434907E1
:1011400017D4C168C943490713D46FF00401016182
:10115000022020772068806910F4407F204602D06A
:10116000FFF7CAFF04E000F07BF8204600F079F8B2
:10117000257720680169C943090716D4C168C943A6
:10118000090712D46FF0080101610420207720685C
:10119000C0698007204602D0FFF7AEFF04E000F0F0
:1011A0005FF8204600F05DF8257720680169C943A3
:1011B000C90617D4C168C943C90613D46FF010011A
:1011C0000161082020772068C06910F4407F204624
:1011D00002D0FFF791FF04E000F042F8204600F053
:1011E00040F8257720680169C943C90708D1C1685B
:1011F000C943C90704D1891E0161204600F032F8B5
:1012000020680169C943090609D4C168C9430906B0
:1012100005D46FF0800101612046FFF70DFE2068C4
:101220000169C943490609D4C168C943490605D4BF
:101230006FF040010161204600F036F82068016936
:10124000C94389060BD4C168C943890607D46FF026
:10125000200101612046BDE87040FFF7EEBD70BD82
:101260007047704710B50D4C6188491C618021881A
:10127000491C218000680A49884201D100F0F0FE33
:101280006088B0F5FA7F08D300206080BDE8104088
:101290004FF480510348FFF79EB910BD1A0000209B
:1012A00000080040000C01407047704770B50268AC
:1012B00004461068D168536910F00F0F52D003F044
:1012C000010501F490762E435FD0C20705D0CA0510
:1012D00003D5E26B42F00102E263420705D5DA076B
:1012E00003D0E26B42F00202E263820705D5DA071F
:1012F00003D0E26B42F00402E263020707D501F07B
:1013000020022A4303D0E26B42F00802E263E26B60
:10131000002A33D0800604D5880602D5204600F086
:10132000BAFB20684069E16BC0F38010090700D464
:1013300028B3204600F0A1FB2068416949061AD570
:10134000416921F040014161606BA0B12D494163C9
:10135000606BFEF7EDFF002810D0606B416BBDE8BD
:1013600070400847830610D58B060ED52046BDE891
:10137000704000F090BB2046FFF797FF70BD2046FD
:10138000FFF793FF0020E06370BD03062BD50B062B
:1013900029D594F839002128F6D1A068B0F5805FEE
:1013A00001D12069B0B1206A411C21622168007816
:1013B0004860E08C401E0004000CE084E4D120680A
:1013C000C16821F08001C1602068C16841F040011E
:1013D000C16070BD206A0088C0F308005060206AB8
:1013E000801C2062E5E74006F3D54806F1D5D168B8
:1013F000204621F04001D160202184F8391000F00E
:1014000044F970BD6B1A000870B5040004D094F85C
:101410003900002510B106E0012070BD84F8385075
:10142000204600F023F8242084F839002068C168A1
:1014300021F40051C160204600F074FB206801696E
:1014400021F4904101612068416921F02A01416144
:101450002068C16841F40051C160E563202084F830
:10146000390084F83A00002070BD000070B586B0E5
:10147000002400940194029403942E4E03682E4994
:10148000022003222D4DB34226D18B6943F48043C1
:101490008B618B6903F4804304938B6943F00403ED
:1014A0008B618969039201F0040104910102CDE985
:1014B000001069462846FEF799FF2815CDE900047B
:1014C000694628460294FEF791FF0022022125205A
:1014D000FFF7F0F9252028E0194EB34227D1CB6958
:1014E00043F40033CB61CB6903F4003304938B697D
:1014F00043F004038B618969039201F004010491B4
:101500000421CDE9001069462846FEF76FFF082048
:10151000CDE90004694628460294FEF767FF0022E1
:1015200002212620FFF7C6F92620FFF7B5F906B0FD
:1015300070BD00000038014000100240000801406A
:101540000044004090F83A30202B22D1F9B1F2B19A
:1015500090F83830012B1CD081628285C285002131
:10156000C163222280F83A2080F838100168CA68E6
:1015700042F48072CA6001684A6942F001024A611D
:101580000068C16841F02001C1600020704701205F
:10159000704702207047000010B500680B49884270
:1015A00012D101220A490B48FFF7CCFF09484FF43A
:1015B0007A7301220649403800F00EF8044800789A
:1015C000BDE8104001F03EB810BD000000440040EE
:1015D0001F000020380200202DE9F843044690F84F
:1015E00039001F4616460D4620284CD1C5B1BEB164
:1015F00094F83800012846D0012084F838004FF0D4
:101600000008C4F83C80212084F83900FEF7F0FF80
:10161000A6848146E684A068B0F5805F03D004E02C
:101620000120BDE8F883206928B12E465FF000054F
:1016300084F838800EE00026FAE78021204600F08A
:10164000CDFAA0B9AEB116F8010B21684860E08C64
:10165000401EE084E08C4B464FF0000200970028CB
:10166000EBD14FF04001204600F0B8FA30B1032032
:10167000D7E735F8020BC0F30800E6E7202084F82E
:1016800039000020CDE70220CBE77047FEE70000DD
:1016900010B5002219491A4800F0BAFC194A032172
:1016A000174800F0E1FB174A0421154800F0DCFB65
:1016B000144A0521124800F0D7FB114800F0BEFC87
:1016C0000F4800221049283000F0A2FC0C480F4AB5
:1016D0000321283000F0C8FB09480C4A04212830B7
:1016E00000F0C2FB0648094A0521283000F0BCFB87
:1016F0000348BDE81040283000F0A0BCD125000808
:10170000C4000020991D0008E1250008F51D00080F
:1017100030B585B000241F480094019402940394CE
:10172000816941F004018161816901F00401049142
:10173000816941F0080181618069174D00F008005E
:101740000490002247F220312846FEF74CFF4FF468
:10175000E64000900120CDE9010402200390694693
:101760002846FEF743FE4FF4C850CDE90004694611
:101770000A480294FEF73AFE202000901120CDE99D
:1017800001040320039069462846FEF72FFE05B0AA
:1017900030BD000000100240000C01400008014074
:1017A0000D4810B50B4901600C49416000214FF410
:1017B00080428160C0E9031241618161C1610162BF
:1017C000FEF71CFF002803D0BDE81040FEF7AEBDB9
:1017D00010BD00000054004014010020A08601004C
:1017E00010B586B000241748009401940294039425
:1017F00004941349059401602321C0E901144FF6B4
:10180000FF71C0E903148461FFF74CFB08B1FEF7D8
:101810008DFD4FF48050009069460A48FFF701FCA7
:1018200008B1FEF783FD1020CDE9040404A90548A2
:10183000FFF704FB002801D0FEF778FD06B010BDCD
:10184000000400406801002010B586B0002417484D
:101850000094019402940394049413490594016044
:101860002321C0E901144FF47A71C0E903148461A3
:10187000FFF718FB08B1FEF759FD4FF480500090B8
:1018800069460A48FFF7CDFB08B1FEF74FFD049407
:1018900004A906480594FFF7D1FA002801D0FEF705
:1018A00045FD06B010BD000000080040B00100205A
:1018B0000C4810B50A4901604FF4165141600021EF
:1018C00081600C22C160C0E904128161C161FFF72F
:1018D0009BFD002803D0BDE81040FEF727BD10BDDA
:1018E00000380140F80100200C4810B50A49016099
:1018F0004FF416514160002181600C22C160C0E9A3
:1019000004128161C161FFF77FFD002803D0BDE8AB
:101910001040FEF70BBD10BD00440040380200200F
:10192000FEE7FEE770477047FEF75ABF30B58FB04D
:1019300028216846FEF7FDFB14210AA8FEF7F9FBF3
:1019400002250120049000951020059000244FF4FA
:10195000E010CDE9084007956846FFF7C9F808B1DF
:1019600072B6FEE70F200A90CDE90B540D940121C9
:101970000AA80E94FEF7D0FF002801D072B6FEE749
:101980000FB030BD704700000148FFF7B6BB000044
:10199000B0010020F0B50268164B174C174D4FF000
:1019A0008047984205D0B84203D0A04201D0A84257
:1019B00003D122F070064A683243984205D0B842FB
:1019C00003D0A04201D0A84203D122F44074CA68D7
:1019D00022434C6922F08002224302608A68C2627C
:1019E0000A688262984201D109690163012141615B
:1019F000F0BD0000002C0140000400400008004041
:101A000010B5846842EA032224F47F440A43224347
:101A1000826010BD826822F070020A4342F0070122
:101A20008160704710B5036A046A24F001040462FF
:101A3000846924F0F00444EA021423F00A020A4301
:101A40008461026210BD10B5036A23F010030362C3
:101A50008369046A23F4704343EA023224F0A0034A
:101A600043EA01118261016210BD10B5406A002194
:101A7000C185C184FFF719FC10BD0168CA6822F452
:101A80009072CA6001684A6922F001024A6120210D
:101A900080F83A10704710B590F83A10222901D01A
:101AA000022010BD82684FF480539A4201D101692F
:101AB00021B1816A9A421BD04AB10AE00268816A68
:101AC0005268C2F308020A80816A891C08E0026930
:101AD00072B10268526802F07F020A70816A491C82
:101AE0008162C18D491E0904090CC18503D016E02D
:101AF00002685268F1E70168CA6822F02002CA60F1
:101B00000168CA6822F48072CA6001684A6922F0DA
:101B100001024A61202180F83A10FFF73DFD0020C4
:101B200010BD000070B5044600680169E26821F448
:101B30004051114301612169A0680843616908436C
:101B40002168CA6841F20C639A430243CA60206864
:101B50004169A26921F44071114341611E49206825
:101B6000884202D1FEF77EFF01E0FEF76BFF00EB3B
:101B7000C00101EB0012606864218000B2FBF0F349
:101B8000B3FBF1F36FF018067343B2FBF0F5B2FB51
:101B9000F0F605EB8305322303EB0515B5FBF1F5F4
:101BA000B6FBF1F605F0F00505EB0615B2FBF0F615
:101BB000B2FBF0F0B0FBF1F06FF01802504306EB0F
:101BC000800003EB0010B0FBF1F0216800F00F0083
:101BD0002844886070BD0000003801402DE9F041C4
:101BE000984617460E460446069D1DE0681C1BD00D
:101BF0002DB1FEF7FDFCA0EB0800A84214D9206827
:101C0000C16821F4D071C1602068416921F00101EF
:101C10004161202084F8390084F83A00002084F8DB
:101C200038000320BDE8F0812068006836EA000033
:101C300004D00020B842D9D00020F3E70120F9E712
:101C40000148FFF733BB0000F80100200148FFF70F
:101C50002DBB000038020020FEE7000070B500F048
:101C600019FC4FF400510F4C4D00052819D2DFE844
:101C700000F0030305070D00002202E0012206E048
:101C800001222046FEF7AFFC012204E0002220469C
:101C9000FEF7A9FC002229462046BDE87040FEF769
:101CA000A2BC70BD000C0140014A024900F023B8FB
:101CB00085220008380000200907090E002804DBEF
:101CC00000F1E02080F80014704700F00F0000F1F0
:101CD000E02080F8141D704702E008C8121F08C1F8
:101CE000002AFAD170477047002001E001C1121F9D
:101CF000002AFBD170472DE9F04116460F460446F5
:101D0000002503E03946B047641C6D1C207800288C
:101D1000F8D12846BDE8F08110B51E4CA178E078D6
:101D200001EB810100EB4101012000F083FB2178F0
:101D3000022000F07FFB0021032000F05BFB02216A
:101D4000072000F077FB0021092000F053FB6421FD
:101D50000A2000F06FFB40F226210B2000F06AFB06
:101D600000210C2000F066FB5F210D2000F062FBDB
:101D70000221112000F05EFB0221122000F05AFB2C
:101D80000021152000F012FB9621BDE8104016201E
:101D900000F050BB3300002010B500F07FFA03289C
:101DA00007D0042807D0052802D105490120087072
:101DB00010BD04A000E009A0BDE81040FFF774BF0B
:101DC000190000204B4559312053494E474C455F7F
:101DD000434C49434B21200D0A0000004B4559312B
:101DE00020444F55424C455F434C49434B21200D05
:101DF0000A00000010B500F051FA032808D00428AA
:101E000008D0052808D105A0BDE81040FFF74CBF59
:101E100009A0F9E70EA0F7E710BD00004B455932C5
:101E2000204C4F4E475F50524553535F53544152DD
:101E30005421200D0A0000004B4559322053494ED1
:101E4000474C455F434C49434B21200D0A0000009D
:101E50004B45593220444F55424C455F434C494312
:101E60004B21200D0A00000000EB810082607047CA
:101E700070B50446406880470146E078420702D0CA
:101E80002288521C2280B1EBD01F0CD04FF00052A0
:101E900002EBB0104FEAB060C0F3C202E070032A58
:101EA00004D361F3C71020F03800E070C0B200F036
:101EB0000701002506291ED2DFE801F0031E407A43
:101EC0001D91C0F38011B1EBD01FA07820F0F0007D
:101ED0000FD1A070A16809B1204688472580A0785D
:101EE00020F00F00401CA070E07820F00700401C9C
:101EF00011E08030A07070BDC0F38011B1EBD01F35
:101F00000BD0A07820F0F0001030A070E168A1B3F1
:101F1000204688475DE0E07070BD2088C828FBD966
:101F2000A07820F0F0005030A070E16909B120469F
:101F30008847E07820F00700401DECE7C0F38011EF
:101F4000B1EBD01F1AD1A07820F0F000A070A168EA
:101F500009B120468847A0784FF0805101EB30103E
:101F60004FEA3070A070216909B12046884725806A
:101F7000E07820F00700C01CCDE72AE020883C284C
:101F8000CAD9A07800F00F01012902D0022906D099
:101F90003AE020F0F0003030A070616904E020F0F9
:101FA000F0004030A070A16971B3204688472BE053
:101FB000C0F38011B1EBD01FAED0A07820F0F000BC
:101FC0001030A070E16809B12046884720883C287D
:101FD0001AD22580E07820F00700801C9BE7C0F330
:101FE0008011B1EBD01FA07820F0F00008D1603054
:101FF000A070216A00298FD02046BDE870400847B4
:102000001030A070E168CFE7E07820F0070082E7A9
:1020100070B50D46164604462821FEF78AF8A078CA
:1020200020F0F0008030A0706560A8470146E0789D
:1020300061F3C71066F38610E07070BD074A11683F
:102040000B4605E0814202D14FF0FF307047496AEC
:102050000029F7D143621060002070472C00002057
:10206000054810B5046803E02046FFF701FF646AE5
:10207000002CF9D110BD00002C00002001780A02CC
:10208000417811430A028178C078114340EA012067
:10209000704700002DE9F84F3E49814601EB0905E4
:1020A000E87801243C4B0F282BD2DFE800F0081819
:1020B0001C20292C2E2A682A2A2A2A2A6C00197800
:1020C000002031B1012100F0A1FAC2B203210020A9
:1020D00012E0002100F09AFAC2B21C70F6E7BDE8E7
:1020E000F84F00F011BA00220321022004E0A87981
:1020F000D870002203210846BDE8F84F00F03CBB31
:102100005C70BDE8F88F9C70FBE768792979002640
:1021100040EA012730E000BF1E4809EB06010144F8
:10212000087A497AAC1901EB002014F8068F1FFADF
:1021300080FBA078E17894F801A001EB002080B248
:10214000009000F0BEF80021144A05E012F811C01A
:10215000C44503D0491CC9B28142F7D302EB410008
:102160004178514504D1211D4046009A00F018F8ED
:1021700006EB0B00001D86B2BE42CDD3C1E7BDE821
:10218000F84FFFF7C9BDA879E979BDE8F84F00F02D
:1021900099BA00003C00002004000020D427000869
:1021A00070B5C31F00240125102B13D2DFE803F004
:1021B0000812151E272E351212123C4312124A5FC6
:1021C0000846114600F064F92C4A014610700720B9
:1021D00012E0284670BD204670BD0846114600F04A
:1021E00055F90146092000F005F93BE00846114683
:1021F00000F04EF901460A2000F01CF932E00846D2
:10220000114600F045F901460B20F5E70846114656
:1022100000F03EF901460C20EEE70846114600F0BA
:1022200037F901460D20E7E70846114600F030F97E
:1022300001461120E0E70846114600F029F9014661
:102240001220D9E70846114600F01EF906000C4896
:102250004FF4807109D00122FEF7C5F931461520EF
:1022600000F0A4F80128B6D1B3E70022F4E708464D
:10227000114600F00DF901461620BDE718000020B8
:10228000000C014013B54FF6FF7301226946024866
:10229000FFF7A2F900981CBDF80100208078000922
:1022A00070470000034610B50020024606E000BF5C
:1022B00013F8014B521C2044C0B292B28A42F7D3A9
:1022C00010BD0D2070470000FEF792FAFFF72EFBBD
:1022D000FFF71EFAFFF764FAFFF7B6FAFFF7E8FA1E
:1022E000FFF702FBFFF77CFAFFF7D2F900F0D4F911
:1022F0002448FEF757FE244C012211032046FEF726
:1023000072F9012251032046FEF76DF90122910373
:102310002046FEF768F901221C491D48FFF712F913
:1023200001221C491C48FFF70DF91C4DDFF8708095
:102330001C4E1D4C002700BFFFF790FC00F0C4F9B5
:102340002878012802D12F7000F0AAF898F8000030
:1023500000EB4001C1EBC0103188B1EBC00FEBD3F3
:102360003780FDF75FFFA178E07801EB810100EB9A
:102370004101012000F05EF82178022000F05AF8B7
:10238000DAE70000B0010020000C01401E00002030
:10239000F80100201F000020380200201900002052
:1023A000180000201A0000203300002010B5104A49
:1023B0000C46014612780020012A14D000F026F9BC
:1023C000012100F023F9002100F020F9012100F0A3
:1023D0001DF954B15FF0010100F018F90246032124
:1023E000072000F0C9F9012010BD0021F4E700002A
:1023F0001000002010B50E4A0C460146127800204D
:10240000012A12D000F002F9042100F0FFF80021A7
:1024100000F0FCF8012100F0F9F8214600F0F6F890
:1024200002460321072000F0A7F9012010BD00009B
:102430001000002010B5134A0C4601461278002007
:10244000012A1DD000F0E2F8022100F0DFF800219F
:1024500000F0DCF8042100F0D9F8210E00F0D6F8E5
:10246000C4F3074100F0D2F8C4F3072100F0CEF81E
:10247000E1B200F0CBF802460321072000F07CF91E
:10248000012010BD100000200078704700787047D0
:10249000FFF7F4BD014800787047000007000020F6
:1024A00003490020087002460321042000F064B9AB
:1024B0000500002030B538B131B1884202D98C18FE
:1024C000844212D2002305E0002030BDCD5CC5540B
:1024D0005B1C9BB29342F9D330BD8B1813F8014CAF
:1024E0008318521E03F8014C92B2002AF5D130BD78
:1024F0000021002806D000E0491C10F8012B002A1A
:10250000FAD108467047000010B5002422A0FFF75A
:10251000EFFF82B220A1204600F06AF8C4B220A0EA
:10252000FFF7E6FF82B21EA1204600F061F8C4B2B8
:1025300020A0FFF7DDFF82B21EA1204600F058F870
:10254000C4B21EA0FFF7D4FF82B21CA1204600F047
:102550004FF8C4B21BA0FFF7CBFF82B219A12046EF
:1025600000F046F8C4B216A0FFF7C2FF82B214A171
:10257000204600F03DF8C4B214A0FFF7B9FF82B2C4
:1025800012A1204600F034F8C2B20321BDE8104089
:10259000012000F0F1B800007B2270223A220000F6
:1025A0006E7664617434646538763874347A716533
:1025B00000000000222C2276223A2200312E302EFA
:1025C00030000000222C226D223A00007D00000025
:1025D0004FF400610148FDF7F9BF00000008014019
:1025E0004FF480510148FDF7F1BF000000080140A1
:1025F00070B50446044815462044801DFFF75AFF75
:10260000601980B270BD00008A000020024A0244B6
:10261000401C917180B270478A0000200749D1E9BF
:1026200001329A4208D00648824201D317388860A6
:102630008A6812F8010B8A607047000004000020CD
:102640008A0000200B4910B50B680B490A689C1AD8
:10265000012C0DD09A4202D9D31A172B08D2074B5E
:102660009A4202D3A3F117020A6002F8010B0A6032
:1026700010BD00000C000020080000208A0000208F
:1026800001B54FF47A73012269460248FEF7A4FFB0
:1026900008BD0000380200200649054808600649C8
:1026A00008600649002008700549FF20087070473F
:1026B00073000020080000200C0000201000002003
:1026C00007000020704700002DE9F0410024284E4B
:1026D000284D06E0FFF7A2FF014628883154401C30
:1026E00028802888372803D200F068F80028F1D124
:1026F0002888072839D328E0315D552901D0641C8A
:1027000006E032195178AA29F9D1917811B1A41CA7
:10271000A4B21AE0117953790902C91D19448FB284
:102720003E2F0CD8B84214DB781E81B21046FFF75A
:10273000B9FD2744B91911F8011C884201D0E41CE5
:10274000E6E72046FFF7A6FCBCB22888001B072856
:10275000D2DA2888001B0204120C2A8005D0311915
:10276000BDE8F0410248FFF7A5BEBDE8F0810000DA
:102770003C0000200000002070B50F4D55232B7049
:10278000AA236B70A970E870100A28716A71D21DB3
:1027900094B2601E81B22846FFF784FD291901F822
:1027A000010C002C07D003E02878FFF769FF6D1CAF
:1027B000641EA4B2F8D270BD8A0000200448D0E99B
:1027C0000110814201D001207047002070470000B5
:1027D00004000020010202020304070209040A02A5
:1027E0000B020C020D02110212021501160200006A
:1027F00000000000000001020304060708090000B1
:102800000000010203040000282800080000002046
:102810003C000000D81C0008642800083C00002090
:102820003C060000E81C000800000000000000005A
:102830000000000000000000000000000024F40080
:102840000000000000000000010000001000000077
:102850000000000000000000000000000000000078
:042860000000000074
:04000005080000ED02
:00000001FF
